:100000000C9432000C94D1030C94FA030C94230446
:100010000C944F000C944F000C944F000C944F0024
:100020000C944F000C944F000C944F000C944F0014
:100030000C944F000C944F000C944F000C944F0004
:100040000C944F000C944F000C944F000C944F00F4
:100050000C944F00E000F10002011301240135016E
:100060004601570111241FBECFE5D8E0DEBFCDBF4A
:1000700010E0A0E6B0E0EAEEF0E102C005900D92DB
:10008000A636B107D9F720E0A6E6B0E001C01D9280
:10009000A238B207E1F70E9428020C9473080C946E
:1000A0000000809168008230E9F028F4882341F054
:1000B000813079F008958330F1F0843029F108958A
:1000C00081E08093610099E09093600080936800E4
:1000D000089582E08093610098E09093600080939F
:1000E0006800089583E08093610097E0909360003A
:1000F00080936800089585E080936100809360009C
:1001000084E080936800089588E08093610082E035
:100110008093600010926800089560E082E40E947D
:10012000E80161E082E40E94E80160E081E40E946D
:10013000010261E081E40E94010262E081E40E9428
:10014000010263E081E40E94010260E081E40E9418
:100150001B0261E081E40E941B0262E081E40E94D4
:100160001B0263E081E40E941B0280E00E94840382
:1001700061E570E080E00E94B9030E944C0440E019
:1001800050E068EC72E480E00E94B30480E00E94DA
:10019000DA050895CF93DF93EC01662321F06130F7
:1001A00009F497C0A6C0E8814E2F50E0FA013197BC
:1001B000E830F10508F09DC0E65DFF4F0C946D0836
:1001C00060E081E40E940E0261E081E40E941B0273
:1001D00062E081E40E941B0263E081E40E941B0252
:1001E00088C060E081E40E940E0261E081E40E9428
:1001F0000E0262E081E40E941B0263E081E40E943F
:100200001B0277C060E081E40E940E0261E081E49D
:100210000E940E0262E081E40E940E0263E081E42B
:100220000E941B0266C060E081E40E940E0261E051
:1002300081E40E940E0262E081E40E940E0263E00B
:1002400081E40E940E0255C060E081E40E941B021E
:1002500061E081E40E940E0262E081E40E940E02ED
:1002600063E081E40E940E0244C060E081E40E94E9
:100270001B0261E081E40E941B0262E081E40E94B3
:100280000E0263E081E40E940E0233C060E081E46C
:100290000E941B0261E081E40E941B0262E081E493
:1002A0000E941B0263E081E40E940E0222C060E013
:1002B00081E40E941B0261E081E40E941B0262E073
:1002C00081E40E941B0263E081E40E941B02188209
:1002D00010C060E081E40E941B0261E081E40E94A2
:1002E0001B0262E081E40E941B0263E081E40E9441
:1002F0001B02DF91CF910895CF93DF9300D0CDB74C
:10030000DEB71A821982AE014E5F5F4F60E082E471
:100310000E94F5018A81882349F1AE014E5F5F4F4B
:1003200060E082E40E94F5018A818823F9F0AE0141
:100330004E5F5F4F60E082E40E94F50180916700AC
:100340008F5F809367006091660087E690E00E946F
:10035000CA008A81882351F0AE014E5F5F4F60E092
:1003600082E40E94F5018A818111F6CFAE014F5FD0
:100370005F4F61E082E40E94F5018981882309F2E0
:10038000AE014F5F5F4F61E082E40E94F501898119
:10039000882309F4B6CFAE014F5F5F4F61E082E47E
:1003A0000E94F501809167008F5F809367000E9433
:1003B00051008981882309F4A4CFAE014F5F5F4FBC
:1003C00061E082E40E94F50189818111F6CF99CF25
:1003D000853438F4683038F440E00E942D0280E023
:1003E000089581E0089582E00895853430F46830FE
:1003F00030F40E94430380E0089581E0089582E094
:100400000895853438F4683038F441E00E942D02B4
:1004100080E0089581E0089582E00895853438F4FD
:10042000683038F441E00E94B80280E0089581E02D
:10043000089582E00895853438F4683038F440E057
:100440000E94B80280E0089581E0089582E0089556
:100450000E948D000E947C01FDCF683008F080C0B2
:10046000442321F0413009F440C07CC08234B1F013
:1004700018F4813431F078C08334E9F0843441F1E8
:1004800073C02AB381E090E002C0880F991F6A957B
:10049000E2F7809582238ABB80E0089527B381E04C
:1004A00090E002C0880F991F6A95E2F78095822339
:1004B00087BB80E0089524B381E090E002C0880FFC
:1004C000991F6A95E2F78095822384BB80E00895A6
:1004D00021B381E090E002C0880F991F6A95E2F78E
:1004E0008095822381BB80E008958234A9F018F4BE
:1004F000813431F03BC08334D9F0843429F136C0E3
:100500002AB381E090E002C0880F991F6A95E2F754
:10051000822B8ABB80E0089527B381E090E002C07F
:10052000880F991F6A95E2F7822B87BB80E00895B8
:1005300024B381E090E002C0880F991F6A95E2F72A
:10054000822B84BB80E0089521B381E090E002C05B
:10055000880F991F6A95E2F7822B81BB80E008958E
:1005600082E0089584E0089581E0089581E008958F
:10057000683008F080C0442321F0413009F440C0C5
:100580007CC08234B1F018F4813431F078C0833407
:10059000E9F0843441F173C02BB381E090E002C0F4
:1005A000880F991F6A95E2F7809582238BBB80E0C4
:1005B000089528B381E090E002C0880F991F6A95E2
:1005C000E2F78095822388BB80E0089525B381E01F
:1005D00090E002C0880F991F6A95E2F78095822308
:1005E00085BB80E0089522B381E090E002C0880FCF
:1005F000991F6A95E2F78095822382BB80E0089577
:100600008234A9F018F4813431F03BC08334D9F03E
:10061000843429F136C02BB381E090E002C0880F0A
:10062000991F6A95E2F7822B8BBB80E0089528B36F
:1006300081E090E002C0880F991F6A95E2F7822B53
:1006400088BB80E0089525B381E090E002C0880F68
:10065000991F6A95E2F7822B85BB80E0089522B34B
:1006600081E090E002C0880F991F6A95E2F7822B23
:1006700082BB80E0089582E0089583E0089581E0E0
:10068000089581E008956830D8F58234A9F018F40F
:10069000813431F037C08334D9F0843429F132C049
:1006A00089B390E002C0959587956A95E2F78170CD
:1006B000FA01808380E0089586B390E002C09595AA
:1006C00087956A95E2F78170FA01808380E008954A
:1006D00083B390E002C0959587956A95E2F78170A3
:1006E000FA01808380E0089580B390E002C0959580
:1006F00087956A95E2F78170FA01808380E008951A
:1007000082E0089581E00895813061F018F0823030
:1007100089F015C085B7816085BF85B7826085BFC8
:1007200080E014C085B7846085BF85B7886085BFC9
:1007300080E011C084B7806484BF80E011C0813044
:1007400049F018F0823081F40AC081E09BB79064D0
:100750009BBF0BC081E09BB790689BBF06C081E048
:100760009BB790629BBF01C081E09FB790689FBF1D
:10077000089561157105A1F0811105C070936E0097
:1007800060936D000895813029F470936C0060933C
:100790006B000895823021F470936A0060936900C1
:1007A00008951F920F920FB60F9211242F933F932B
:1007B0004F935F936F937F938F939F93AF93BF9369
:1007C000EF93FF93E0916D00F0916E00309709F088
:1007D0000995FF91EF91BF91AF919F918F917F917B
:1007E0006F915F914F913F912F910F900FBE0F909E
:1007F0001F9018951F920F920FB60F9211242F93EE
:100800003F934F935F936F937F938F939F93AF9398
:10081000BF93EF93FF93E0916B00F0916C003097E2
:1008200009F00995FF91EF91BF91AF919F918F9141
:100830007F916F915F914F913F912F910F900FBEDC
:100840000F901F9018951F920F920FB60F921124C0
:100850002F933F934F935F936F937F938F939F93C8
:10086000AF93BF93EF93FF93E0916900F0916A001B
:10087000309709F00995FF91EF91BF91AF919F914A
:100880008F917F916F915F914F913F912F910F9039
:100890000FBE0F901F90189580916200813009F172
:1008A00018F08230C1F154C080916300813009F4A6
:1008B0004DC018F0823059F04DC083B7877F83BF99
:1008C00083B78F7B83BF89B7816089BF3FC083B700
:1008D000886083BF83B78F7B83BF89B7826089BFFE
:1008E00035C080916300882319F08330A8F52EC0AD
:1008F0008FB58F778FBD8FB58F7B8FBD8EB58F7E78
:100900008EBD8EB5877F8EBD8FB58D7F8FBD8FB528
:100910008E7F8FBD1BC0809163008130B9F018F0CD
:10092000823059F01BC085B5877F85BD85B58F7B2B
:1009300085BD89B7806489BF09C083B7886083BFDC
:1009400083B78F7B83BF89B7806889BF80E007C08A
:1009500081E005C083E003C083E001C083E09FB76E
:1009600090689FBF0895CF92DF92EF92FF92282F59
:10097000CB01BA01213009F455C020F0223009F42E
:10098000AAC006C120916300222329F0233008F475
:1009900001C183E00AC120E030E04AE754E40E944C
:1009A00000086B017C018091640090916500969530
:1009B00087959695879596958795BC0180E090E000
:1009C0000E9472079B01AC01C701B6010E94D106CB
:1009D0000E944307C72ED82EE92EFF24C0927E0026
:1009E000D0927F00E0928000F092810060937D00C1
:1009F000662309F4D1C0619562BF80917E00909119
:100A00007F00A0918000B09181000196A11DB11DD1
:100A100080937E0090937F00A0938000B09381002C
:100A200080E0C3C020916700222329F0233008F41E
:100A3000B5C083E0BAC020E030E04AE754E40E9449
:100A400000086B017C018091680090916900969587
:100A500087959695879596958795BC0180E090E05F
:100A60000E9472079B01AC01C701B6010E94D1062A
:100A70000E9443076C01EE24FF24C0927900D092BB
:100A80007A00E0927B00F0927C0070937800609393
:100A900077006115710509F483C07195619571093D
:100AA0008CB5862B8CBD8DB5872B8DBD8091730049
:100AB00090917400A0917500B09176000196A11DEF
:100AC000B11D8093730090937400A0937500B09350
:100AD000760080E06AC020916B00222329F0233049
:100AE00008F460C083E061C020E030E04AE754E4ED
:100AF0000E9400086B017C0180916C0090916D0058
:100B0000969587959695879596958795BC0180E0F3
:100B100090E00E9472079B01AC01C701B6010E94E0
:100B2000D1060E944307C72ED82EE92EFF24C0927B
:100B30007300D0927400E0927500F0927600DC01B0
:100B4000CB019927AA27BB2780936F009093700051
:100B5000A0937100B09372000097A105B10521F137
:100B6000682F619564BD8091730090917400A0918D
:100B70007500B09176000196A11DB11D80937300A0
:100B800090937400A0937500B093760080E00DC040
:100B900081E00BC080E009C080E007C080E005C0B4
:100BA00080E003C080E001C080E0FF90EF90DF9024
:100BB000CF900895813009F452C020F0823009F4BA
:100BC0009BC0E7C0809164009091650080349105DE
:100BD00029F130F48130910559F00897A1F0DBC07C
:100BE000811521E0920729F18115944069F1D3C064
:100BF00083B78B7F83BF83B78D7F83BF83B78160CC
:100C000083BF80E0089583B78B7F83BF83B7826003
:100C100083BF83B78E7F83BF80E0089583B78B7FC8
:100C200083BF83B7826083BF83B7816083BF80E067
:100C3000089583B7846083BF83B78D7F83BF83B7F5
:100C40008E7F83BF80E0089583B7846083BF83B7BE
:100C50008D7F83BF83B7816083BF80E008958091DB
:100C60006800909169008034910529F130F4813059
:100C7000910559F00897A1F090C0811521E09207E5
:100C800029F18115944069F188C08EB58B7F8EBDA6
:100C90008EB58D7F8EBD8EB581608EBD80E008954E
:100CA0008EB58B7F8EBD8EB582608EBD8EB58E7FEC
:100CB0008EBD80E008958EB58B7F8EBD8EB582602F
:100CC0008EBD8EB581608EBD80E008958EB5846046
:100CD0008EBD8EB58D7F8EBD8EB58E7F8EBD80E034
:100CE00008958EB584608EBD8EB58D7F8EBD8EB518
:100CF00081608EBD80E008958091680090916900C8
:100D00008034910529F130F48130910559F008972C
:100D1000A1F045C0811521E0920729F18115944089
:100D200069F13DC085B58B7F85BD85B58D7F85BD5E
:100D300085B5816085BD80E0089585B58B7F85BDD3
:100D400085B5826085BD85B58E7F85BD80E00895BF
:100D500085B5846085BD85B58D7F85BD85B58E7F64
:100D600085BD80E0089585B5846085BD85B58260C8
:100D700085BD85B58E7F85BD80E0089585B584608D
:100D800085BD85B5826085BD85B5816085BD80E006
:100D9000089583E0089583E0089583E0089583E053
:100DA00008950E94E5060C94C6070E94BF0758F0FC
:100DB0000E94B80740F029F45F3F29F00C94AF0778
:100DC00051110C94FA070C94B5070E94D70768F3E9
:100DD0009923B1F3552391F3951B550BBB27AA27F4
:100DE00062177307840738F09F5F5F4F220F331F2E
:100DF000441FAA1FA9F335D00E2E3AF0E0E832D0F6
:100E000091505040E695001CCAF72BD0FE2F29D0F8
:100E1000660F771F881FBB1F261737074807AB07CA
:100E2000B0E809F0BB0B802DBF01FF2793585F4F3F
:100E30003AF09E3F510578F00C94AF070C94FA07F6
:100E40005F3FE4F3983ED4F3869577956795B79521
:100E5000F7959F5FC9F7880F911D9695879597F92C
:100E60000895E1E0660F771F881FBB1F62177307A5
:100E70008407BA0720F0621B730B840BBA0BEE1FBA
:100E800088F7E09508950E94DF0788F09F5798F053
:100E9000B92F9927B751B0F0E1F0660F771F881F7F
:100EA000991F1AF0BA95C9F714C0B13091F00E9499
:100EB000F907B1E008950C94F907672F782F882778
:100EC000B85F39F0B93FCCF3869577956795B395C0
:100ED000D9F73EF490958095709561957F4F8F4F2F
:100EE0009F4F0895E89409C097FB3EF49095809534
:100EF000709561957F4F8F4F9F4F9923A9F0F92FE0
:100F000096E9BB279395F695879577956795B7955D
:100F1000F111F8CFFAF4BB0F11F460FF1BC06F5F43
:100F20007F4F8F4F9F4F16C0882311F096E911C055
:100F3000772321F09EE8872F762F05C0662371F076
:100F400096E8862F70E060E02AF09A95660F771F8A
:100F5000881FDAF7880F9695879597F9089597F97E
:100F60009F6780E870E060E008959FEF80EC08954F
:100F700000240A9416161706180609060895002478
:100F80000A9412161306140605060895092E0394F2
:100F9000000C11F4882352F0BB0F40F4BF2B11F466
:100FA00060FF04C06F5F7F4F8F4F9F4F089557FDC5
:100FB0009058440F551F59F05F3F71F04795880FC7
:100FC00097FB991F61F09F3F79F08795089512165E
:100FD00013061406551FF2CF4695F1DF08C016160A
:100FE00017061806991FF1CF8695710561050894BB
:100FF0000895E894BB2766277727CB0197F90895D2
:101000000E9413080C94C6070E94B80738F00E948B
:10101000BF0720F0952311F00C94AF070C94B5078F
:1010200011240C94FA070E94D70770F3959FC1F31F
:10103000950F50E0551F629FF001729FBB27F00D86
:10104000B11D639FAA27F00DB11DAA1F649F6627DB
:10105000B00DA11D661F829F2227B00DA11D621F2A
:10106000739FB00DA11D621F839FA00D611D221FE4
:10107000749F3327A00D611D231F849F600D211DC8
:10108000822F762F6A2F11249F5750409AF0F1F04B
:1010900088234AF0EE0FFF1FBB1F661F771F881FB4
:1010A00091505040A9F79E3F510580F00C94AF0736
:1010B0000C94FA075F3FE4F3983ED4F38695779556
:1010C0006795B795F795E7959F5FC1F7FE2B880F5A
:1010D000911D9695879597F90895EE0FFF1F05903E
:0A10E000F491E02D0994F894FFCF7D
:0610EA00090100004000B6
:00000001FF
